:100000000C94140E0C943E0E0C943E0E0C943E0E6A
:100010000C943E0E0C943E0E0C943E0E0C943E0E30
:100020000C943E0E0C943E0E0C94EAB80C9467B9F6
:100030000C943E0E0C943E0E0C943E0E0C943E0E10
:100040000C943E0E0C949B730C943E0E0C943E0E3E
:100050000C943E0E0C943E0E0C947A860C9449B887
:100060000C943E0E0C943E0E0C943E0E0C943E0EE0
:100070000C943E0E0C943E0E0C943E0E0C943E0ED0
:100080000C943E0E0C943E0E0C943E0E0C943E0EC0
:100090000C943E0E0C943E0E084AD73B3BCE016EAC
:1000A00084BCBFFDC12F3D6C74319ABD56833DDACF
:1000B0003D00C77F11BED9E4BB4C3E916BAAAABEDE
:1000C000000000803F05A84CCDB2D44EB93836A907
:1000D000020C50B9918688083CA6AAAA2ABE000044
:1000E00000803F004E414E494E495459494E46CD3D
:1000F000CCCC3D0AD7233C17B7D13877CC2B3295DF
:1001000095E6241FB14F0A000020410000C84200BC
:10011000401C4620BCBE4CCA1B0E5AAEC59D74483E
:10012000617264636F6465642044656661756C74B4
:100130002053657474696E6773204C6F61646564E5
:100140000053746F7265642073657474696E6773AD
:100150002072657472696576656400205A002059C2
:100160000020204D323132205800426564207072E8
:100170006F6265206F666673657420286D6D293A1D
:1001800000205A0020590020204D323131205800E3
:100190004D617820706F736974696F6E20286D6D82
:1001A000293A00205A0020590020204D32313020B9
:1001B00058004D696E20706F736974696F6E2028E6
:1001C0006D6D293A002044002049002020204D3345
:1001D00030312050005049442073657474696E6753
:1001E000733A00205A0020590020204D323036202A
:1001F0005800486F6D65206F666673657420286DC2
:100200006D293A00204500205A0020580020420065
:1002100020540020204D3230352053004164766157
:100220006E636564207661726961626C65733A2001
:10023000533D4D696E206665656472617465202862
:100240006D6D2F73292C20543D4D696E20747261A1
:1002500076656C20666565647261746520286D6DD5
:100260002F73292C20423D6D696E696D756D207369
:1002700065676D656E742074696D6520286D7329DE
:100280002C20583D6D6178696D756D205859206A34
:1002900065726B20286D6D2F73292C20205A3D6DBF
:1002A0006178696D756D205A206A65726B20286DC2
:1002B0006D2F73292C2020453D6D6178696D756D1A
:1002C0002045206A65726B20286D6D2F73290020F0
:1002D000540020204D323034205300416363656C5C
:1002E00065726174696F6E3A20533D616363656C3A
:1002F00065726174696F6E2C20543D726574726111
:10030000637420616363656C65726174696F6E000C
:10031000204500205A0020590020204D3230312045
:1003200058004D6178696D756D20416363656C653A
:10033000726174696F6E20286D6D2F7332293A00D7
:10034000204500205A0020590020204D3230332013
:1003500058004D6178696D756D20666565647261E0
:1003600074657320286D6D2F73293A002045002095
:100370005A0020590020204D39322058005374650E
:1003800070732070657220756E69743A00536574DD
:1003900074696E67732053746F7265640065636877
:1003A0006F3A0053544F505045442E20005072690C
:1003B0006E7465722073746F707065642064756507
:1003C00020746F206572726F72732E2046697820D8
:1003D000746865206572726F7220616E6420757337
:1003E00065204D39393920746F20726573746172DC
:1003F000742E202854656D70657261747572652065
:1004000069732072657365742E2053657420697456
:100410002061667465722072657374617274696EAE
:100420006729004B494C4C45442E20005072696EA0
:100430007465722068616C7465642E206B696C6CE5
:1004400028292063616C6C656421006F6B00526524
:1004500073656E643A20002200556E6B6E6F776E86
:1004600020636F6D6D616E643A2022004368616E97
:1004700067652066696C616D656E7400486F7465B0
:100480006E64206F6666736574733A007A5F6D6997
:100490006E3A2000795F6D61783A2000785F6D696F
:1004A0006E3A20005A3A00593A0020436F756E7434
:1004B00020583A2000453A005A3A00593A00583A32
:1004C000004649524D574152455F4E414D453A4DC8
:1004D00061726C696E2056313B20537072696E7484
:1004E00065722F6772626C206D617368757020662B
:1004F0006F722067656E36204649524D574152450E
:100500005F55524C3A687474703A2F2F7072696E4E
:100510007472626F742E636F6D2050524F544F434C
:100520004F4C5F56455253494F4E3A312E30204D75
:10053000414348494E455F545950453A5072696E9F
:100540007472626F742045585452554445525F434B
:100550004F554E543A3320555549443A3030303097
:10056000303030302D303030302D303030302D3094
:100570003030302D3030303030303030303030307E
:100580000A005072696E7472626F74204F66662E34
:100590000042656420646F6E652E0020423A0020A0
:1005A000453A00543A004265642048656174696EBA
:1005B000672E0048656174696E6720646F6E652EF2
:1005C0000020573A0020453A00543A0048656174CB
:1005D000696E672E2E2E002042403A0020403A00DD
:1005E000202F003A00205400202F0020423A002003
:1005F0002F006F6B20543A002569206D696E2C2006
:1006000025692073656300456E642066696C65200A
:100610006C69737400426567696E2066696C652059
:100620006C697374004E6F206D6F76652E00526595
:1006300073756D696E67207072696E7400576169B9
:100640007420666F7220757365722E2E2E000A005C
:10065000205A3A200020593A200042656420506F09
:10066000736974696F6E20583A20000A00207A3A44
:10067000200020793A200042656420783A20000A60
:1006800000207A3A200020793A20004265642078E0
:100690003A20000A00207A3A200020793A200042CD
:1006A000656420783A20005A50726F6265204F7559
:1006B000747369646520426564005A50726F6265A4
:1006C000204F7574736964652042656400486F6DDE
:1006D0006520582F59206265666F7265205A004860
:1006E0006F6D6520582F59206265666F7265205ABC
:1006F00000536C6565702E2E2E00FF01FF0000A0D8
:10070000400000A0400000803F256920686F75729E
:1007100073202569206D696E7574657300446F6E72
:1007200065207072696E74696E672066696C650019
:1007300053544F505045442E20005072696E7465DA
:10074000722073746F707065642064756520746FB7
:10075000206572726F72732E204669782074686506
:10076000206572726F7220616E6420757365204D12
:1007700039393920746F20726573746172742E2058
:100780002854656D70657261747572652069732097
:1007900072657365742E20536574206974206166D8
:1007A0007465722072657374617274696E67290072
:1007B0006F6B004E6F204C696E65204E756D6265E3
:1007C00072207769746820636865636B73756D2C3C
:1007D000204C617374204C696E653A20004E6F2086
:1007E000436865636B73756D2077697468206C6905
:1007F0006E65206E756D6265722C204C617374207D
:100800004C696E653A2000636865636B73756D2093
:100810006D69736D617463682C204C617374204C36
:10082000696E653A20004C696E65204E756D626593
:1008300072206973206E6F74204C617374204C6950
:100840006E65204E756D6265722B312C204C617384
:1008500074204C696E653A20004D31313000446F90
:100860006E6520736176696E672066696C652E001F
:100870006F6B004D3239002020506C616E6E6572D6
:1008800042756666657242797465733A2000204647
:10089000726565204D656D6F72793A20004D617209
:1008A000203136203230323100436F6D70696C6513
:1008B000643A2000286C77616C6B6572612C205063
:1008C00072696E7472626F74206669726D7761729C
:1008D000652900207C20417574686F723A20004DB4
:1008E000617220313620323032312031393A33379B
:1008F0003A323800204C617374205570646174651D
:10090000643A2000312E302E30004D61726C696ED9
:10091000200020536F66747761726520526573659D
:100920007400205761746368646F67205265736553
:1009300074002042726F776E206F75742052657359
:100940006574002045787465726E616C2052657321
:10095000657400506F7765725570007374617274BE
:10096000002200656E717565696E672022002200A5
:10097000656E717565696E672022006563686F3A00
:10098000004572726F723A007C3C3E5E2B3D3F2FF9
:100990005B5D3B2C2A225C004D38342058205920C6
:1009A0005A20450043616E6E6F7420656E746572E7
:1009B000207375626469723A20004D3234004D3202
:1009C00033202573006175746F25692E6700657289
:1009D000726F722077726974696E6720746F206617
:1009E000696C65004E6F74205344207072696E7498
:1009F000696E67002F005344207072696E74696ECF
:100A000067206279746520002E0044656C65746906
:100A10006F6E206661696C65642C2046696C653A6E
:100A2000200046696C652064656C657465643A00F5
:100A30002E006F70656E206661696C65642C2046BF
:100A4000696C653A200057726974696E6720746F2B
:100A50002066696C653A20002E006F70656E206616
:100A600061696C65642C2046696C653A20002E0033
:100A70006F70656E206661696C65642C2046696CD8
:100A8000653A200046696C652073656C6563746522
:100A900064002053697A653A200046696C65206FCE
:100AA00070656E65643A20002E006F70656E20667A
:100AB00061696C65642C2046696C653A20004E6F54
:100AC000772066726573682066696C653A20004E0F
:100AD0006F7720646F696E672066696C653A2000E5
:100AE0002220706F73002220706172656E743A224A
:100AF00000535542524F5554494E452043414C4CAA
:100B0000207461726765743A2200747279696E6745
:100B100020746F2063616C6C207375622D67636F46
:100B200064652066696C6573207769746820746FEA
:100B30006F206D616E79206C6576656C732E204D2B
:100B40004158206C6576656C2069733A00534420E7
:100B500063617264206F6B006F70656E526F6F74AB
:100B6000206661696C656400766F6C756D652E69D1
:100B70006E6974206661696C656400534420696E17
:100B80006974206661696C006563686F3A0045723C
:100B9000726F723A0020746F6F206C6F6E67206501
:100BA0007874727573696F6E2070726576656E7495
:100BB00065640020636F6C64206578747275736976
:100BC0006F6E2070726576656E746564006563682B
:100BD0006F3A00656E6473746F7073206869743A5D
:100BE000205A00205A3A00656E6473746F70732047
:100BF0006869743A20590020593A00656E6473742C
:100C00006F7073206869743A20580020583A006564
:100C10006E6473746F7073206869743A200024F4F2
:100C2000D43050C38E20C2A24017828B7011127A2A
:100C3000910D816CD90AA861E108C7586607615116
:100C400043061E4B5D05C145A7041A411104093D29
:100C50009803713931034036DB0265339102D43099
:100C60005402802E1D02632CEE01752AC501B028A6
:100C7000A001102781018F2564012B244B01E02264
:100C80003401AC211F018D200D01801FFC00841E4A
:100C9000ED00971DDF00B81CD200E61BC600201B2C
:100CA000BC00641AB200B219A8000A19A0006A18A0
:100CB0009900D117910040178B00B51684003116AA
:100CC0007E00B31579003A157300C7146F005814ED
:100CD0006A00EE1366008813630025135E00C712D6
:100CE0005B006C12570015125400C11151007011B5
:100CF0004F0021114B00D61049008D1047004610BF
:100D0000440002104200C00F4000800F3E00420F1E
:100D10003C00060F3B00CB0E3800930E37005C0EF4
:100D20003500270E3400F30D3200C10D3100900D57
:100D30003000600D2E00320D2D00050D2C00D90C59
:100D40002B00AE0C2900850C29005C0C2700350C0B
:100D500027000E0C2600E80B2400C40B2400A00B77
:100D600023007D0B23005A0B2100390B2100180BA7
:100D70002000F80A1F00D90A1E00BB0A1E009D0AA7
:100D80001D00800A1D00630A1C00470A1B002C0A74
:100D90001B00110A1A00F7091A00DD091900C4091D
:100DA0001900AB091900920917007B0918006309A3
:100DB00017004C09160036091600200916000A090A
:100DC0001500F5081500E0081400CC081400B80858
:100DD0001400A4081400900813007D0812006B088A
:100DE00013005808120046081200340811002308A6
:100DF00011001208110001081100F0071000E007AF
:100E00001000D0071000C0071000B0070F00A107A6
:100E1000100091070E0083070F0074070F0065078D
:100E20000E0057070E0049070E003B070D002E0766
:100E30000E0020070D0013070D0006070D00F90630
:100E40000C00ED060D00E0060C00D4060C00C806F0
:100E50000C00BC060C00B0060C00A4060B009906A2
:100E60000C008D060B0082060B0077060B006C064B
:100E70000B0061060A0057060B004C060A004206EA
:100E80000A0038060A002E060A0024060A001A067E
:100E90000A001006090007060A00FD050900F4050E
:100EA0000900EB050900E2050900D9050900D00594
:100EB0000900C7050900BE050900B5050800AD0514
:100EC0000800A50509009C050800940508008C058C
:100ED0000800840508007C050800740508006C05FE
:100EE0000700650508005D050700560508004E056A
:100EF00007004705070040050800380507003105D1
:100F000007002A050700230507001C050600160533
:100F100007000F0507000805060002050700FB048F
:100F20000600F5040700EE040600E8040600E204EB
:100F30000700DB040600D5040600CF040600C90440
:100F40000600C3040600BD040600B7040600B10491
:100F50000500AC040600A6040600A00405009B04DE
:100F6000060095040500900406008A040500850427
:100F70000500800406007A0405007504050070046D
:100F800005006B04050066040500610405005C04AF
:100F9000050057040500520405004D0405004804EF
:100FA0000500430405003E0404003A04050035042E
:100FB0000500300404002C04050027040400230469
:100FC00005001E0404001A040400160405001104A0
:100FD00004000D04040009040500040404000004D6
:100FE0000400FC030400F8030400F4030400F0030D
:100FF0000400EC030400E8030400E4030400E0033D
:101000000400DC030400D8030400D4030400D0036C
:101010000400CC030400C8030300C503030024F448
:1010200004D9201BC40C5C0E9804C4095F02650738
:101030007101F405F900FB04B30048048700C10303
:1010400069005803550003034500BE023A008402BC
:10105000310053022A002902250004022000E40185
:101060001C00C8011900AF01170098011400840189
:101070001300710110006101100051010E004301C5
:101080000D0036010B002B010B0020010B00150198
:1010900009000C01090003010800FB000800F3002F
:1010A0000800EB000700E4000600DE000600D800A0
:1010B0000600D2000600CC000500C7000500C200F3
:1010C0000500BD000400B9000400B5000400B10033
:1010D0000400AD000400A9000400A5000300A20064
:1010E00003009F0004009B0003009800030095008C
:1010F000020093000300900003008D0002008B00AB
:1011000003008800020086000200840003008100C2
:1011100002007F0002007D0002007B0002007900D7
:1011200002007700010076000200740002007200E5
:101130000100710002006F0002006D0001006C00F0
:1011400002006A00010069000200670001006600F9
:1011500001006500010064000200620001006100FE
:101160000100600001005F0002005D0001005C0002
:1011700001005B0001005A00010059000100580005
:101180000100570001005600010055000100540005
:101190000100530000005300010052000100510003
:1011A0000100500001004F0001004E0000004E0001
:1011B00001004D0001004C0001004B0000004B00FD
:1011C00001004A00010049000100480000004800F9
:1011D00001004700010046000000460001004500F4
:1011E00000004500010044000100430000004300EE
:1011F00001004200000042000100410000004100E7
:101200000100400001003F0000003F0001003E00DF
:1012100000003E0001003D0000003D0001003C00D8
:1012200000003C0000003C0001003B0000003B00CF
:1012300001003A0000003A000100390000003900C6
:1012400001003800000038000000380001003700BD
:1012500000003700010036000000360000003600B4
:1012600001003500000035000000350001003400A9
:10127000000034000000340001003300000033009F
:101280000000330001003200000032000000320094
:101290000100310000003100000031000100300089
:1012A000000030000000300001002F0000002F007F
:1012B00000002F0000002F0001002E0000002E0073
:1012C00000002E0001002D0000002D0000002D0068
:1012D00000002D0001002C0000002C0000002C005C
:1012E00000002C0001002B0000002B0000002B0050
:1012F00000002B0001002A0000002A0000002A0044
:1013000000002A0001002900000029000000290037
:10131000000029000000290001002800000028002A
:10132000000028000000280000002800010027001D
:101330000000270000002700000027000000270011
:101340000100260000002600000026000000260004
:1013500000002600010025000000250000002500F7
:1013600000002500000025000000250001002400E9
:1013700000002400000024000000240000002400DD
:1013800001002300000023000000230000002300D0
:1013900000002300000023000000230001002200C1
:1013A00000002200000022000000220000002200B5
:1013B00000002200010021000000210000002100A7
:1013C0000000210000002100000021000000210099
:1013D000010020000000200000002000000020008C
:1013E000000020000000200000002000000020007D
:1013F00001001F0000001F0000001F0000001F0070
:1014000000001F0000001F0000001F0001001E0060
:1014100000001E0000001E0000001E0000006563AA
:10142000686F3A004572723A204D415854454D500C
:10143000204245440054656D706572617475726533
:1014400020686561746564206265642073776974DF
:1014500063686564206F66662E204D415854454D83
:1014600050207472696767657265642021210045A8
:1014700072723A204D494E54454D50003A204578FD
:10148000747275646572207377697463686564202B
:101490006F66662E204D494E54454D50207472693A
:1014A0006767657265642021004572723A204D417C
:1014B0005854454D50003A204578747275646572F1
:1014C000207377697463686564206F66662E204DAB
:1014D000415854454D502074726967676572656460
:1014E000202100202D20496E76616C69642065788A
:1014F000747275646572206E756D6265722021006C
:10150000504944204175746F74756E652066696E2C
:101510006973686564212050757420746865204B78
:10152000702C204B6920616E64204B6420636F6EC9
:101530007374616E747320696E746F20436F6E668E
:10154000696775726174696F6E2E68005049442036
:101550004175746F74756E65206661696C65642190
:101560002074696D656F75740020403A006F6B20C0
:10157000543A006F6B20423A005049442041757440
:101580006F74756E65206661696C656421205465B1
:101590006D706572617475726520746F6F20686913
:1015A000676800204B643A2000204B693A200020F5
:1015B0004B703A200020436C6173696320504944AA
:1015C00020002054753A2000204B753A2000206DF1
:1015D00061783A2000206D696E3A200020643A203C
:1015E0000020626961733A20004572726F723A009E
:1015F0001000C90210012C014001220170011801E4
:10160000B0010E01F00104015002FA00B002F00036
:101610003003E600D003DC009004D2007005C8005F
:10162000A006BE000008B400B009AA00D00BA000BC
:10163000600E960060118C00001582002019780061
:10164000C01D6E00A0226400B0275A00902C5000EC
:1016500000314600E0343C0010383200903A280057
:10166000603C1E00A03D1400803E0A00203F0000A8
:1016700070012C0190012701B0012201C0011D0160
:10168000F00118011002130130020E01600209017D
:1016900090020401C002FF000003FA004003F500BD
:1016A0008003F000D003EB002004E6007004E100AA
:1016B000E004DC004005D700C005D2004006CD00A4
:1016C000D006C8008007C3003008BE00F008B9008B
:1016D000C009B400B00AAF00B00BAA00D00CA5003E
:1016E000000EA000500F9B00C010960050129100F9
:1016F00000148C00C0158700B0178200B0197D005F
:10170000D01B7800001E730040206E0090226900FC
:10171000F024640040275F0090295A00E02B550018
:10172000102E500020304B0010324600E0334100B4
:1017300090353C001037370070383200A0392D004A
:10174000B03A2800A03B2300603C1E00103D190069
:10175000903D1400103E0F00703E0A00C03E050090
:10176000003F00004D3234004D3233202573000518
:101770002E2E000452656672657368004D61696EB5
:101780000053746F7265206D656D6F7279004265EC
:101790006400426564004E6F7A7A6C65004E6F7A21
:1017A0007A6C650046616E20737065656400466101
:1017B0006E2073706565640054656D706572617448
:1017C0007572650053746F7265206D656D6F727907
:1017D0000042656400426564004E6F7A7A6C650071
:1017E0004E6F7A7A6C650046616E20737065656431
:1017F0000046616E2073706565640054656D7065A8
:10180000726174757265005072656865617420411B
:10181000425320436F6E66005072656865617420A4
:10182000504C4120436F6E66005049442D43005098
:1018300049442D43005049442D44005049442D440F
:10184000005049442D49005049442D490050494415
:101850002D50005049442D500020022046616374F1
:101860000020022046616374002002204D61780050
:101870002002204D6178002002204D696E00200278
:10188000204D696E004F6666004F6E20004F666601
:10189000004F6E20004175746F74656D7000466175
:1018A0006E2073706565640046616E2073706565B7
:1018B000640042656400426564004E6F7A7A6C652C
:1018C00033004E6F7A7A6C6533004E6F7A7A6C65AE
:1018D00032004E6F7A7A6C6532004E6F7A7A6C65A0
:1018E000004E6F7A7A6C6500436F6E74726F6C0095
:1018F000526573746F7265204661696C73616665C9
:10190000004C6F6164206D656D6F72790053746F68
:101910007265206D656D6F72790054656D706572CA
:101920006174757265004D61696E004D6F7665205A
:10193000302E316D6D004D6F766520316D6D004D2F
:101940006F76652031306D6D005072657061726523
:10195000004578747275646572004D6F7665205A23
:10196000004D6F76652059004D6F76652058004D0B
:101970006F76652041786973004578747275646587
:1019800072005A00590058004D6F76652041786901
:101990007300436F6F6C646F776E0050726568659B
:1019A0006174204142530050726568656174205033
:1019B0004C4100473238004175746F20486F6D65A7
:1019C000004D38340044697361626C65205374655E
:1019D0007070657273004D61696E004D3630300075
:1019E0004368616E67652066696C616D656E740041
:1019F000466C6F7700466C6F770046616E2073709F
:101A00006565640046616E207370656564004265BB
:101A10006400426564004E6F7A7A6C6533004E6FE5
:101A20007A7A6C6533004E6F7A7A6C6532004E6F4D
:101A30007A7A6C6532004E6F7A7A6C65004E6F7AF6
:101A40007A6C650053706565640053706565640069
:101A50004D61696E004D323100496E69742E20531C
:101A6000442D43617264004E6F2043617264004DE7
:101A70003231004368616E67652053442D436172C3
:101A800064005072696E742066726F6D205344005A
:101A900053746F70205072696E7400526573756D67
:101AA00065205072696E74005061757365205072C4
:101AB000696E7400436F6E74726F6C005072657063
:101AC0006172650054756E6500496E666F207363C0
:101AD0007265656E004D383420582059205A2045D3
:101AE000002D2D3A2D2D002D2D2D005344000120C9
:101AF00000012000012000012902290429082910E1
:101B000029202940298029012C022C0126022604A3
:101B10002608261026202640268026402C802C01D0
:101B2000230223042308231023202340238023019E
:101B30002002200420082010202020402080201097
:101B40002C202C012F022F042F082F102F202F4084
:101B50002F802F00010000041C1200020000C11B96
:101B60004300030000BD1B0401030904A31B18026A
:101B70000309048B1B16030309047D1B0C0C0331A2
:101B800000320033003400350000001603550053C6
:101B90000042002000530065007200690061006C83
:101BA00000000018035400650065006E00730079A2
:101BB000006400750069006E006F000000040309F6
:101BC0000409024300020100C032090400000102BE
:101BD0000201000524001001052401000104240273
:101BE00006052406000107058203080040090401D8
:101BF00000020A00000007050302400000070584F8
:101C0000024000001201000202000020C0168304FE
:101C10007202010203010001C10201803601813616
:101C2000642128A209BE682111241FBECFEFD0E293
:101C3000DEBFCDBF13E0A0E0B1E0E8E9F2E901E0EA
:101C40000BBF02C007900D92AA39B107D9F721E165
:101C5000AAE9B3E001C01D92A830B207E1F71EE087
:101C6000C3E1DEE004C02197FE010E9405C3C0313C
:101C7000D107C9F70E9422BC0C9440C90C94000003
:101C8000FB0101900020E9F73197AF01461B570B8C
:101C9000DC01ED91FC910280F381E02D0994CF935A
:101CA000DF931F92CDB7DEB76983DC01ED91FC9124
:101CB0000280F381E02D41E050E0BE016F5F7F4F75
:101CC00009950F90DF91CF910895EF92FF920F93B6
:101CD0001F93CF938C017B01C42FF70161917F018A
:101CE000F801808191810E9432C9F801808191813F
:101CF000019691838083C15081F7CF911F910F91FD
:101D0000FF90EF900895EF92FF920F931F93CF9360
:101D10008C017B01C42FF801808191810E942AC926
:101D2000F70181937F01F801808191810196918370
:101D30008083C15081F7CF911F910F91FF90EF9059
:101D400008950F931F93CF93DF93CDB7DEB72C97F2
:101D50000FB6F894DEBF0FBECDBF809135029091D3
:101D60003602A0913702B09138028D839E83AF83F3
:101D7000B88704E610E01C870B8744E0BE016B5F68
:101D80007F4FCE010B96A1DF40E168E87FE0CE01F6
:101D90000B969BDF40E168E97FE0CE010B9695DF73
:101DA00040E168E77FE0CE010B968FDF44E060E71B
:101DB0007FE0CE010B9689DF44E06CE67FE0CE0148
:101DC0000B9683DF44E064E77FE0CE010B967DDF76
:101DD00044E06CE57FE0CE010B9677DF44E068EAF3
:101DE0007FE0CE010B9671DF44E068E67FE0CE0134
:101DF0000B966BDF44E064E67FE0CE010B9665DF77
:101E000044E060E67FE0CE010B965FDF4CE061EAE4
:101E100075E0CE010B9659DF42E06BEE70E1CE012A
:101E20000B9653DF42E069EE70E1CE010B964DDF79
:101E300042E067EE70E1CE010B9647DF42E065EECF
:101E400070E1CE010B9641DF42E063EE70E1CE011E
:101E50000B963BDF42E061EE70E1CE010B9635DF81
:101E600044E060E071E0CE010B962FDF44E064E0D7
:101E700071E0CE010B9629DF44E068E071E0CE010D
:101E80000B9623DF44E062EA71E0CE010B961DDF82
:101E900044E06EE971E0CE010B9617DF44E06AE999
:101EA00071E0CE010B9611DF80E290E09A8789877E
:101EB00042E0BE01675F7F4FCE010B9606DF44E034
:101EC0006AE973E0CE010B9600DF44E06CE071E05C
:101ED000CE010B96FADE44E06EE973E0CE010B967C
:101EE000F4DE44E060E171E0CE010B96EEDE44E00A
:101EF00062EA73E0CE010B96E8DE44E064E171E053
:101F0000CE010B96E2DE8091390290913A02A091C7
:101F10003B02B0913C0289839A83AB83BC831C87CC
:101F20000B8744E0BE016F5F7F4FCE010B96CDDE85
:101F3000EDE9F3E064918F01662341F08CEF90E1CD
:101F4000AEDE0F5F1F4FF8016491F6CFEDE8F3E0CE
:101F500064918F01662341F08CEF90E1A0DE0F5F6A
:101F60001F4FF8016491F6CF6AE08CEF90E197DEA5
:101F70002C960FB6F894DEBF0FBECDBFDF91CF9188
:101F80001F910F9108950F931F93CF93DF93CDE986
:101F9000D3E0FE0164918E01662341F08CEF90E165
:101FA0007EDE0F5F1F4FF8016491F6CFEDE7F3E09F
:101FB00064918F01662341F08CEF90E170DE0F5F3A
:101FC0001F4FF8016491F6CF6AE08CEF90E167DE75
:101FD000FE0164910DE913E0662341F08CEF90E17E
:101FE0005EDE0F5F1F4FF8016491F6CF4091880FBE
:101FF0005091890F60918A0F70918B0F85E793E064
:102000000E94601A40918C0F50918D0F60918E0F3D
:1020100070918F0F82E793E00E94601A4091900FB9
:102020005091910F6091920F7091930F8FE693E012
:102030000E94601A4091940F5091950F6091960FF5
:102040007091970F8CE693E00E94601A65E373E04D
:102050008CEF90E115DE6AE08CEF90E120DEFE016E
:1020600064910DE913E0662341F08CEF90E117DEF7
:102070000F5F1F4FF8016491F6CFE2E5F3E0649142
:102080008F01662341F08CEF90E109DE0F5F1F4F57
:10209000F8016491F6CF6AE08CEF90E100DEFE017A
:1020A00064910DE913E0662341F08CEF90E1F7DDD8
:1020B0000F5F1F4FF8016491F6CF4091980F509138
:1020C000990F60919A0F70919B0F89E493E00E94A1
:1020D000601A40919C0F50919D0F60919E0F7091DE
:1020E0009F0F86E493E00E94601A4091A00F5091E8
:1020F000A10F6091A20F7091A30F83E493E00E945F
:10210000601A4091A40F5091A50F6091A60F709195
:10211000A70F80E493E00E94601A65E373E08CEF00
:1021200090E1AEDD6AE08CEF90E1B9DDFE016491F3
:102130000DE913E0662341F08CEF90E1B0DD0F5F15
:102140001F4FF8016491F6CFE2E2F3E064918F0152
:10215000662341F08CEF90E1A2DD0F5F1F4FF80185
:102160006491F6CF6AE08CEF90E199DDFE01649115
:102170000DE913E0662341F08CEF90E190DD0F5FF5
:102180001F4FF8016491F6CF4091780F5091790F6D
:1021900060917A0F70917B0F89E193E00E94801A21
:1021A00040917C0F50917D0F60917E0F70917F0F59
:1021B00086E193E00E94801A4091800F5091810F38
:1021C0006091820F7091830F83E193E00E94801AE7
:1021D0004091840F5091850F6091860F7091870F09
:1021E00080E193E00E94801A65E373E08CEF90E158
:1021F00047DD6AE08CEF90E152DDFE0164910DE96C
:1022000013E0662341F08CEF90E149DD0F5F1F4F33
:10221000F8016491F6CFEBEDF2E064918F01662353
:1022200041F08CEF90E13BDD0F5F1F4FF8016491AF
:10223000F6CF6AE08CEF90E132DDFE0164910DE9AA
:1022400013E0662341F08CEF90E129DD0F5F1F4F13
:10225000F8016491F6CF4091700F5091710F609129
:10226000720F7091730F82ED92E00E94601A40919C
:102270006C0F50916D0F60916E0F70916F0F8FEC1E
:1022800092E00E94601A65E373E08CEF90E1F8DC65
:102290006AE08CEF90E103DDFE0164910DE913E04B
:1022A000662341F08CEF90E1FADC0F5F1F4FF801DD
:1022B0006491F6CFECE1F2E064918F01662341F086
:1022C0008CEF90E1ECDC0F5F1F4FF8016491F6CFCB
:1022D0006AE08CEF90E1E3DCFE0164910DE913E02C
:1022E000662341F08CEF90E1DADC0F5F1F4FF801BD
:1022F0006491F6CF4091740F5091750F6091760FF5
:102300007091770F83E192E00E94601A40915C0F18
:1023100050915D0F60915E0F70915F0F80E192E0D0
:102320000E94601A4091A80F5091A90F6091AA0FC6
:102330007091AB0F8DE092E00E94801A4091680F7F
:102340005091690F60916A0F70916B0F8AE092E073
:102350000E94601A4091640F5091650F6091660F62
:102360007091670F87E092E00E94601A4091600FC1
:102370005091610F6091620F7091630F84E092E061
:102380000E94601A65E373E08CEF90E179DC6AE00B
:102390008CEF90E184DCFE0164910DE913E066238B
:1023A00041F08CEF90E17BDC0F5F1F4FF8016491EF
:1023B000F6CFE2EFF1E064918F01662341F08CEFFC
:1023C00090E16DDC0F5F1F4FF8016491F6CF6AE07A
:1023D0008CEF90E164DCFE0164910DE913E066236B
:1023E00041F08CEF90E15BDC0F5F1F4FF8016491CF
:1023F000F6CF4091A1055091A2056091A30570917F
:10240000A40589EE91E00E94601A4091A5055091C3
:10241000A6056091A7057091A80586EE91E00E943F
:10242000601A4091A9055091AA056091AB05709181
:10243000AC0583EE91E00E94601A65E373E08CEFD7
:1024400090E11EDC6AE08CEF90E129DCFE016491F2
:102450000DE913E0662341F08CEF90E120DC0F5F83
:102460001F4FF8016491F6CFE5EDF1E064918F0123
:10247000662341F08CEF90E112DC0F5F1F4FF801F3
:102480006491F6CF6AE08CEF90E109DCFE01649183
:102490000DE913E0662341F08CEF90E100DC0F5F63
:1024A0001F4FF8016491F6CF4091A2015091A30112
:1024B0006091A4017091A5018BEC91E00E94601ADB
:1024C00060919E0170919F018091A0019091A10166
:1024D0000E945D88AB01BC0188EC91E0F1D760916E
:1024E0009A0170919B0180919C0190919D010E94A5
:1024F0006A88AB01BC0185EC91E0E2D765E373E04B
:102500008CEF90E1BDDB6AE08CEF90E1C8DBFE016F
:1025100064910DE913E0662341F08CEF90E1BFDB9D
:102520000F5F1F4FF8016491F6CFE2EBF1E0649189
:102530008F01662341F08CEF90E1B1DB0F5F1F4FFD
:10254000F8016491F6CF6AE08CEF90E1A8DBFE0120
:1025500064910DE913E0662341F08CEF90E19FDB7D
:102560000F5F1F4FF8016491F6CF40919A0350918D
:102570009B0360919C0370919D0389EA91E0A0D731
:1025800040919E0350919F036091A0037091A1031D
:1025900086EA91E095D74091A2035091A303609100
:1025A000A4037091A50383EA91E08AD765E373E001
:1025B0008CEF90E165DB6AE08CEF90E170DBFE016F
:1025C00064910DE913E0662341F08CEF90E167DB45
:1025D0000F5F1F4FF8016491F6CFE0E9F1E06491DD
:1025E0008F01662341F08CEF90E159DB0F5F1F4FA5
:1025F000F8016491F6CF6AE08CEF90E150DBFE01C8
:1026000064910DE913E0662341F08CEF90E147DB24
:102610000F5F1F4FF8016491F6CF40910C0150916C
:102620000D0160910E0170910F0187E891E048D78C
:1026300040911001509111016091120170911301AC
:1026400084E891E03DD740911401509115016091CB
:1026500016017091170181E891E032D765E373E0CC
:102660008CEF90E10DDB6AE08CEF90E118DBFE016E
:1026700064910DE913E0662341F08CEF90E10FDBEC
:102680000F5F1F4FF8016491F6CFEAE6F1E0649125
:102690008F01662341F08CEF90E101DB0F5F1F4F4C
:1026A000F8016491F6CF6AE08CEF90E1F8DAFE0170
:1026B0006491CDE9D3E0662339F08CEF90E1EFDA55
:1026C0002196FE016491F7CF4091000150910101E4
:1026D000609102017091030181E691E0F1D6409191
:1026E00004015091050160910601709107018EE58A
:1026F00091E0E6D6409108015091090160910A01EC
:1027000070910B018BE591E0DBD665E373E08CEF14
:1027100090E1B6DA6AE08CEF90E1DF91CF911F9102
:102720000F91BDCAAF92BF92CF92DF92EF92FF920C
:102730000F931F93CF93DF93CDB7DEB7E0970FB61C
:10274000F894DEBF0FBECDBF80E1E5ECF1E0DE0125
:10275000919601900D928A95E1F780E1E5EDF1E027
:10276000DE01519601900D928A95E1F780E1E5EE48
:10277000F1E0DE01119601900D928A95E1F7DE01FC
:10278000919668E87FE0AE014F5E5F4F28E93FE039
:10279000CE0101965C0188E79FE08E010F5C1F4F20
:1027A000CD90DD90ED90FD90FB01C192D192E19230
:1027B000F192BF01FA01C190D190E190F190AF0187
:1027C000F901C192D192E192F1929F01F501C1907C
:1027D000D190E190F1905F01FC01C192D192E19220
:1027E000F192CF01A017B107D9F60E94897280E05B
:1027F00090E8ABE3B5E48093700F9093710FA093D2
:10280000720FB093730F80936C0F90936D0FA09322
:102810006E0FB0936F0F1092740F1092750F10928D
:10282000760F1092770F80E29EE4A0E0B0E08093F4
:10283000A80F9093A90FA093AA0FB093AB0F10927B
:102840005C0F10925D0F10925E0F10925F0F80E090
:1028500090E0A0EAB1E48093680F9093690FA09391
:102860006A0FB0936B0F8DEC9CECACECBEE38093E5
:10287000640F9093650FA093660FB093670F80E08D
:1028800090E0A0EAB0E48093600F9093610FA09372
:10289000620FB093630F1092A9051092AA051092CF
:1028A000AB051092AC051092A5051092A6051092EA
:1028B000A7051092A8051092A1051092A2051092EA
:1028C000A3051092A40584EB90E09093EC10809304
:1028D000EB1086E490E09093EA108093E9108FEF7C
:1028E00090E09093E8108093E71020EF30E0309371
:1028F000E6102093E51024E630E03093E4102093B6
:10290000E3109093E2108093E11080E090E0A0E269
:10291000B1E48093000190930101A0930201B09370
:1029200003018093040190930501A0930601B093E5
:10293000070180E090E0A0E8B0EC8093080190935C
:102940000901A0930A01B0930B018AE999E9A1EB6F
:10295000B1E48093A2019093A301A093A401B0934A
:10296000A50161E77DE38AE89FE30E9456886093B2
:102970009E0170939F018093A0019093A10160E05C
:1029800070E084EE92E40E94638860939A017093F1
:102990009B0180939C0190939D010E94CE7C80E0DE
:1029A00090E0A0E8BFE38093960190939701A093F5
:1029B0009801B093990110929A0310929B03109280
:1029C0009C0310929D0310929E0310929F031092FD
:1029D000A0031092A1031092A2031092A3031092DD
:1029E000A4031092A50386E696E6A8E1B3E48093DB
:1029F0000C0190930D01A0930E01B0930F018093F1
:102A0000100190931101A0931201B09313018093D0
:102A1000140190931501A0931601B0931701EDE9ED
:102A2000F3E064918F01662341F08CEF90E137D998
:102A30000F5F1F4FF8016491F6CFEFE1F1E0649171
:102A40008F01662341F08CEF90E129D90F5F1F4F72
:102A5000F8016491F6CF6AE08CEF90E1E0960FB652
:102A6000F894DEBF0FBECDBFDF91CF911F910F91C4
:102A7000FF90EF90DF90CF90BF90AF9010C90F9371
:102A80001F93CF93DF93CDB7DEB72C970FB6F89493
:102A9000DEBF0FBECDBF84E690E09C878B87809120
:102AA000390290913A02A0913B02B0913C02898395
:102AB0009A83AB83BC8344E0BE016B5F7F4FCE0142
:102AC0000B9621D943E050E0BE016B5F7F4FCE01F2
:102AD00001960E9441C6892B09F0EBC040E168E8ED
:102AE0007FE0CE010B960FD940E168E97FE0CE018F
:102AF0000B9609D940E168E77FE0CE010B9603D938
:102B00000E94897244E060E77FE0CE010B96FBD81B
:102B100044E06CE67FE0CE010B96F5D844E064E734
:102B20007FE0CE010B96EFD844E06CE57FE0CE016C
:102B30000B96E9D844E068EA7FE0CE010B96E3D833
:102B400044E068E67FE0CE010B96DDD844E064E621
:102B50007FE0CE010B96D7D844E060E67FE0CE015F
:102B60000B96D1D84CE061EA75E0CE010B96CBD83C
:102B700042E06BEE70E1CE010B96C5D842E069EE03
:102B800070E1CE010B96BFD842E067EE70E1CE0156
:102B90000B96B9D842E065EE70E1CE010B96B3D842
:102BA00042E063EE70E1CE010B96ADD842E061EEFB
:102BB00070E1CE010B96A7D844E060E071E0CE0151
:102BC0000B96A1D844E064E071E0CE010B969BD84F
:102BD00044E068E071E0CE010B9695D844E062EAEB
:102BE00071E0CE010B968FD844E06EE971E0CE0122
:102BF0000B9689D844E06AE971E0CE010B9683D840
:102C000042E0BE01675F7F4FCE010B967CD844E067
:102C10006AE973E0CE010B9676D844E06CE071E08F
:102C2000CE010B9670D844E06EE973E0CE010B96AE
:102C30006AD844E060E171E0CE010B9664D844E0CC
:102C400062EA73E0CE010B965ED844E064E171E085
:102C5000CE010B9658D80E94CE7CEDE9F3E064914A
:102C60008F01662341F08CEF90E119D80F5F1F4F61
:102C7000F8016491F6CFE1E4F1E064918F016623FD
:102C800041F08CEF90E10BD80F5F1F4FF80164917A
:102C9000F6CF6AE08CEF90E102D875D92C960FB68A
:102CA000F894DEBF0FBECDBFDF91CF911F910F9182
:102CB000089538DDF2CF90E080E008950895809186
:102CC0001D0190911E01A0911F01B09120018093E0
:102CD000570590935805A0935905B0935A058091D4
:102CE0003101909132019093BE058093BD0584E639
:102CF00090E090933201809331010FB6F894809167
:102D0000F1109091F210A091F310B091F4100FBE59
:102D10008093B6039093B703A093B803B093B9031D
:102D200081E00C94927380E00E9492738091570529
:102D300090915805A0915905B0915A0580931D01B5
:102D400090931E01A0931F01B09320018091BD05B7
:102D50009091BE0590933201809331010FB6F894A3
:102D60008091F1109091F210A091F310B091F410B5
:102D70000FBE8093B6039093B703A093B803B093AC
:102D8000B90308954F925F926F927F928F929F92B4
:102D9000AF92BF92CF92DF92EF92FF920F931F9369
:102DA00040901D0150901E0160901F017090200105
:102DB000812CE0E49E2EECE9AE2EE5E4BE2E80925E
:102DC0001D0190921E01A0921F01B0922001EDEA18
:102DD000F5E0608371838283938324833583468304
:102DE0005783E086F18602871387E9E7F5E0FF93D2
:102DF000EF93FBEA8F2EFAEA9F2EF6EAAF2EF2E46B
:102E0000BF2EA9EBCA2EA5E0DA2E0E947A660E9498
:102E1000647A40921D0150921E0160921F017092CF
:102E200020010F900F901F910F91FF90EF90DF9076
:102E3000CF90BF90AF909F908F907F906F905F905A
:102E40004F9008952F923F924F925F926F927F9290
:102E50008F929F92AF92BF92CF92DF92EF92FF92AA
:102E60000F931F93CF93DF9383E591E00E9410B4FB
:102E700060913B0170913C0180913D0190913E0138
:102E800060931D0170931E0180931F019093200198
:102E900020E030E040E752E40E94FDBE4B015C01BF
:102EA000CDEAD5E02C813D814E815F8168817981B9
:102EB0008A819B81E9E72E2EE5E03E2E3F922F92FC
:102EC000F9EBCF2EF5E0DF2EE12CF12C00E211EC36
:102ED0000E947A660E94647A82E00E94C27A4B0164
:102EE0005C012C813D814E815F81688179818A817D
:102EF0009B81850174010E949C71E5E0F7E02591BA
:102F0000359145915491C501B4010E941DBE2B011C
:102F10003C0120E030E040E752E460911D017091F7
:102F20001E0180911F01909120010E94FDBE4B0166
:102F30005C012C813D814E815F81688179818A812C
:102F40009B813F922F92830172010E947A660E94B8
:102F5000647A20E030E040E85EE360913B017091EC
:102F60003C0180913D0190913E010E94CBC1609354
:102F70001D0170931E0180931F0190932001E5E0D5
:102F8000F7E0C590D590E590F49020E030E040E780
:102F900052E40E94FDBE4B015C01A7019601C701EE
:102FA000B6010E941DBE9B01AC01C301B2010E948B
:102FB0001CBE7B018C012C813D814E815F8168812B
:102FC00079818A819B813F922F92B9EBCB2EB5E01C
:102FD000DB2E0E947A660E94647A82E00E94C27AA6
:102FE0007B018C01E886F9860A871B872C813D814D
:102FF0004E815F81688179818A819B810E949C7169
:103000000F900F900F900F900F900F90DF91CF9136
:103010001F910F91FF90EF90DF90CF90BF90AF90F6
:103020009F908F907F906F905F904F903F902F90E8
:1030300008952F923F924F925F926F927F928F925C
:103040009F92AF92BF92CF92DF92EF92FF920F9337
:103050001F93CF93DF93CDB7DEB768970FB6F89481
:10306000DEBF0FBECDBF9A8B898BFC01E650F94FB6
:1030700054902DEA622E25E0722E880F991F880F3A
:10308000991F9E878D8783559A4F9C8B8B8BFC0154
:103090001082118212821382F301E084F18402858E
:1030A00013852481358146815781608171818281B8
:1030B0009381E9EBCE2EE5E0DE2E0E949C71EAE9D9
:1030C000F3E02081318142815381ECE0F1E06081C5
:1030D0007181828193810E941CBE69837A838B8374
:1030E0009C8320919E0330919F034091A0035091B7
:1030F000A1036091100170911101809112019091D2
:1031000013010E941CBE6D837E838F83988720915C
:10311000A2033091A3034091A4035091A5036091B1
:1031200014017091150180911601909117010E9470
:103130001CBE69877A878B879C8721E030E02C0F43
:103140003D1F8D859E85280F391F3E8B2D8BF901E4
:10315000C080D180E280F380652D550C770B880B01
:10316000990B0E9498BF1B012C012D853E85295982
:103170003A4F388B2F8720E030E040EC5FE3C70107
:10318000B6010E94CBC1A20191010E94CBC1EF8583
:10319000F88960837183828393832D853E852D5CBE
:1031A0003E4F388F2F8BF90160817181828193812D
:1031B00060931D0170931E0180931F019093200165
:1031C00020E030E040E752E40E94FDBE4B015C018C
:1031D000E0906F05F09070050091710510917205F7
:1031E00020916B0530916C0540916D0550916E05F5
:1031F000E7E6F5E06081718182819381E9E7F5E09E
:10320000FF93EF93F3E7CF2EF5E0DF2E0E947A666F
:103210000E94647AEB89FC891082118212821382E7
:10322000F301E084F1840285138524813581468190
:1032300057816081718182819381A9EBCA2EA5E0BB
:10324000DA2E0E949C712D853E852350394F39011D
:10325000F90165917591859194919058A201910120
:103260000E94CBC1EF85F889608371838283938349
:1032700020E030E040E752E460911D0170911E01B2
:1032800080911F01909120010E94FDBE4B015C01C5
:10329000E0906F05F0907005009171051091720536
:1032A00020916B0530916C0540916D0550916E0534
:1032B000E7E6F5E06081718182819381E9E7F5E0DD
:1032C000FF93EF93B3E7CB2EB5E0DB2E0E947A6637
:1032D0000E94647AF30165917591859194919B01A7
:1032E000AC010E941DBEA20191010E94CBC1EF85DD
:1032F000F889608371838283938320E030E040E02B
:103300005FE3EF89F88D60817181828193810E94F2
:10331000CBC160931D0170931E0180931F01909398
:10332000200120E030E040E752E40E94FDBE4B0166
:103330005C01E0906F05F0907005009171051091AF
:10334000720520916B0530916C0540916D0550918F
:103350006E05E7E6F5E06081718182819381E9E79E
:10336000F5E0FF93EF930E947A660E94647AEAE99F
:10337000F3E080819181A281B38189839A83AB83B9
:10338000BC838091100190911101A0911201B09124
:1033900013018D839E83AF83B8878091A2039091A0
:1033A000A303A091A403B091A50389879A87AB8753
:1033B000BC87ED89FE892081318142815381ED8571
:1033C000FE85EF55FA4F4080518062807380C301C3
:1033D000B2010E941DBE6B017C01EB89FC89C08299
:1033E000D182E282F3820D851E850B561A4FED8540
:1033F000FE85E656FC4FA3019201608171818281B6
:1034000093810E941DBEF801608371838283938340
:103410000D851E850D5D1E4FED85FE85E45FFE4F1B
:10342000A301920160817181828193810E941DBEFE
:10343000F8016083718382839383EF85F889C0826A
:10344000D182E282F38210921D0110921E0110922D
:103450001F01109220010E948B73E989FA89EE56B0
:10346000FA4F81E080830F900F900F900F900F9094
:103470000F9068960FB6F894DEBF0FBECDBFDF91F8
:10348000CF911F910F91FF90EF90DF90CF90BF9061
:10349000AF909F908F907F906F905F904F903F90F4
:1034A0002F900895AB01770F660B770B0C947ABBC6
:1034B0000C9486BBFC01238121110C949E49089534
:1034C000CF92DF92EF92FF92CF93DF93EC016A01EC
:1034D0007B01FE016491662331F08CEF90E10E9444
:1034E0004F0E2196F6CF22E030E0B701A6018CEF17
:1034F00090E1DF91CF91FF90EF90DF90CF90D8CF08
:10350000CF92DF92EF92FF92CF93DF93EC016A01AB
:103510007B01FE016491662331F08CEF90E10E9403
:103520004F0E2196F6CF20E0B701A6018CEF90E177
:10353000DF91CF91FF90EF90DF90CF900C9418BB6C
:10354000CF93DF9300D0CDB7DEB72091EE1030914E
:10355000EF10CE0101962115310559F488509141A3
:103560009A83898389819A810F900F90DF91CF91FF
:103570000895821B930BF4CFCF93DF932091C00368
:103580003091C103243031050CF064C0BC0120919E
:10359000C2033091C30340E6429FC001439F900D98
:1035A000112486539C4F0E943AC6EBE7F9E06491E0
:1035B000EF01662341F08CEF90E10E944F0E2196BF
:1035C000FE016491F6CFE0E7F9E06491EF01662334
:1035D00041F08CEF90E10E944F0E2196FE01649124
:1035E000F6CF8091C2039091C30320E6289FB001DB
:1035F000299F700D112466537C4F8CEF90E10E943F
:10360000400EEEE6F9E06491EF01662341F08CEFA5
:1036100090E10E944F0E2196FE016491F6CF6AE080
:103620008CEF90E10E944F0E8091C2039091C303F2
:10363000019664E070E00E94B4C29093C30380934B
:10364000C2038091C0039091C10301969093C1037E
:103650008093C003DF91CF910895CF93DF932091A2
:10366000C0033091C103243031050CF064C0BC01AB
:103670002091C2033091C30340E6429FC001439FA3
:10368000900D112486539C4F0E94BDC5EBE7F9E0D5
:103690006491EF01662341F08CEF90E10E944F0EA0
:1036A0002196FE016491F6CFE3E6F9E06491EF0123
:1036B000662341F08CEF90E10E944F0E2196FE01AF
:1036C0006491F6CF8091C2039091C30320E6289FB6
:1036D000B001299F700D112466537C4F8CEF90E14F
:1036E0000E94400EE1E6F9E06491EF01662341F0AB
:1036F0008CEF90E10E944F0E2196FE016491F6CF6F
:103700006AE08CEF90E10E944F0E8091C20390918D
:10371000C303019664E070E00E94B4C29093C303B7
:103720008093C2038091C0039091C103019690934E
:10373000C1038093C003DF91CF910895EF92FF9270
:103740000F931F93CF93DF9380E885BF85BF40E938
:1037500050ED63E070E08CEF90E10E94A3BDEBE5DB
:10376000F9E06491EF01662341F08CEF90E10E9453
:103770004F0E2196FE016491F6CF6AE08CEF90E146
:103780000E944F0ECBE7D9E0FE0164918E016623C3
:1037900049F08CEF90E10E944F0E0F5F1F4FF80130
:1037A0006491F5CF14B710FF15C0E3E5F9E064911B
:1037B0007F01662351F08CEF90E10E944F0EFFEFE6
:1037C000EF1AFF0AF7016491F4CF6AE08CEF90E101
:1037D0000E944F0E11FF15C0E3E4F9E064917F01F0
:1037E000662351F08CEF90E10E944F0EFFEFEF1A2D
:1037F000FF0AF7016491F4CF6AE08CEF90E10E9438
:103800004F0E12FF15C0E2E3F9E064917F016623D9
:1038100051F08CEF90E10E944F0EFFEFEF1AFF0A7C
:10382000F7016491F4CF6AE08CEF90E10E944F0EB3
:1038300013FF15C0E2E2F9E064917F01662351F0C5
:103840008CEF90E10E944F0EFFEFEF1AFF0AF70195
:103850006491F4CF6AE08CEF90E10E944F0E15FF67
:1038600014C0E2E1F9E064918F01662349F08CEF26
:1038700090E10E944F0E0F5F1F4FF8016491F5CF4A
:103880006AE08CEF90E10E944F0E14BEEAE0F9E08E
:1038900064918F01662349F08CEF90E10E944F0EF6
:1038A0000F5F1F4FF8016491F5CFE4E0F9E06491F8
:1038B0008F01662349F08CEF90E10E944F0E0F5F5D
:1038C0001F4FF8016491F5CF6AE08CEF90E10E9400
:1038D0004F0EFE0164910BE719E0662349F08CEF6F
:1038E00090E10E944F0E0F5F1F4FF8016491F5CFDA
:1038F000E4EFF8E064918F01662349F08CEF90E1EA
:103900000E944F0E0F5F1F4FF8016491F5CFEFED4E
:10391000F8E064918F01662349F08CEF90E10E94FA
:103920004F0E0F5F1F4FF8016491F5CFE3EDF8E004
:1039300064918F01662349F08CEF90E10E944F0E55
:103940000F5F1F4FF8016491F5CFE4EBF8E064914D
:103950008F01662349F08CEF90E10E944F0E0F5FBC
:103960001F4FF8016491F5CF6AE08CEF90E10E945F
:103970004F0EE9EAF8E064918F01662349F08CEF7D
:1039800090E10E944F0E0F5F1F4FF8016491F5CF39
:10399000EDE9F8E064918F01662349F08CEF90E146
:1039A0000E944F0E0F5F1F4FF8016491F5CF6AE040
:1039B0008CEF90E10E944F0EFE016491CBE7D9E0BD
:1039C000662341F08CEF90E10E944F0E2196FE019C
:1039D0006491F6CFEEE8F8E06491EF01662341F0E0
:1039E0008CEF90E10E944F0E2196FE016491F6CF7C
:1039F000A7DDBC018CEF90E155DDE7E7F8E06491CD
:103A0000EF01662341F08CEF90E10E944F0E21966A
:103A1000FE016491F6CF60ED74E08CEF90E142DD41
:103A20006AE08CEF90E10E944F0E1092C603109254
:103A3000C7031092C8031092C90321D80E94CF7FF8
:103A40000E9413650E94077A0E945498FFEF23EDAD
:103A500080E3F15020408040E1F700C00000DF919A
:103A6000CF911F910F91FF90EF9008958091BA032D
:103A70009091BB0370E060E001960C942DC380919F
:103A8000BA039091BB034AE050E070E060E0019619
:103A90000C9482C4682F880F770B2091C403309157
:103AA000C50340E6429FC001439F900D11248653F9
:103AB0009C4F0E942FC69C019093BB038093BA0336
:103AC00081E0232B09F480E00895CF93DF930FB6B4
:103AD000F8948091F1109091F210A091F310B091B0
:103AE000F4100FBE8093B6039093B703A093B8036E
:103AF000B093B903E091C403F091C503EA53FC4FBE
:103B00008081811115C0EBE4F4E06491EF0166233C
:103B100041F08CEF90E10E944F0E2196FE016491DE
:103B2000F6CF6AE08CEF90E1DF91CF910C944F0ECD
:103B3000DF91CF9108958F929F92AF92BF92CF92D3
:103B4000DF92EF92FF920F931F93CF93DF938DEF4E
:103B5000C82E82E0D82E9DEAE92E95E0F92E07E6E0
:103B600015E0D0E0C0E0F60181916F0193DF88237A
:103B700009F44CC07BDF4B015C01FE01E154FA4FBC
:103B80006081611102C060914A0570E090E080E0C0
:103B90000E9498BFF70120813181428153810E94A8
:103BA000CBC1A50194010E941DBEF8016083718301
:103BB000828393832196F4E0EF0EF11C0C5F1F4F7C
:103BC000C430D10581F686E465DF882391F04EDFAD
:103BD0006B017C0120E030E0A9010E94F9C01816B9
:103BE00044F4C0921D01D0921E01E0921F01F09298
:103BF0002001DF91CF911F910F91FF90EF90DF9007
:103C0000CF90BF90AF909F908F900895F7018081E3
:103C10009181A281B381F80180839183A283B383D0
:103C2000C9CF89DF89E436DF8823B9F01FDF6093CD
:103C30005B0570935C0580935D0590935E058AE457
:103C400029DF882399F012DF60935F057093600588
:103C50008093610590936205089510925B05109220
:103C60005C0510925D0510925E05E9CF10925F052C
:103C70001092600510926105109262050895CF922E
:103C8000DF92EF92FF92CF93DF93EC01C090950506
:103C9000D0909605E0909705F0909805A7019601C1
:103CA000688179818A819B810E94F6BE87FF04C06A
:103CB000C882D982EA82FB82C0909905D0909A0589
:103CC000E0909B05F0909C05A70196016C817D8199
:103CD0008E819F810E94F6BE87FF04C0CC82DD8268
:103CE000EE82FF82C0909D05D0909E05E0909F05DA
:103CF000F090A005A7019601688579858A859B8546
:103D00000E94F6BE87FF04C0C886D986EA86FB8675
:103D1000C0902301D0902401E0902501F09026016D
:103D2000A7019601688179818A819B810E94F9C0EF
:103D3000181624F4C882D982EA82FB82C090270137
:103D4000D0902801E0902901F0902A01A701960166
:103D50006C817D818E819F810E94F9C0181624F4A8
:103D6000CC82DD82EE82FF82C0902B01D0902C01AC
:103D7000E0902D01F0902E01A701960168857985CC
:103D80008A859B850E94F9C0181624F4C886D986B6
:103D9000EA86FB86DF91CF91FF90EF90DF90CF9086
:103DA00008954F925F926F927F928F929F92AF92FF
:103DB000BF92CF92DF92EF92FF920F931F93CF9318
:103DC000DF93CDB7DEB728970FB6F894DEBF0FBEEE
:103DD000CDBF87E695E053DF0FB6F8948091F110E0
:103DE0009091F210A091F310B091F4100FBE809357
:103DF000B6039093B703A093B803B093B90320918F
:103E00006705309168054091690550916A052983DD
:103E10003A834B835C83C0901D01D0901E01E090DB
:103E20001F01F09020016091AD057091AE05809169
:103E3000AF059091B0050E94F6BE40906B05509082
:103E40006C0560906D0570906E0520916F05309146
:103E5000700540917105509172052D833E834F830B
:103E60005887811155C0A30192016091B1057091ED
:103E7000B2058091B3059091B4050E94F6BE811100
:103E800047C020E030E040E752E4C701B6010E949D
:103E9000FDBE4B015C0189E795E09F938F9383E71B
:103EA000C82E85E0D82EED80FE800F811885A301F5
:103EB000920169817A818B819C810E947A660F9040
:103EC0000F90E7E6F5E0ADEAB5E0419151916191DF
:103ED00071914D935D936D937D9335E0E737F307D3
:103EE000A1F728960FB6F894DEBF0FBECDBFDF91C5
:103EF000CF911F910F91FF90EF90DF90CF90BF90E7
:103F0000AF909F908F907F906F905F904F900895AB
:103F10006091310170913201072E000C880B990BD2
:103F20000E9498BFA70196010E94CBC120E030E01B
:103F300040E752E40E94FDBE20E030E048EC52E44D
:103F4000A6CFAF92BF92CF92DF92EF92FF920F93E4
:103F50001F93CF93DF93F82E20915F05309160057A
:103F6000409161055091620560915B0570915C051F
:103F700080915D0590915E050E9406C1EB01182FAE
:103F8000092F6091310170913201072E000C880BCE
:103F9000990B0E9498BF20911D0130911E01409104
:103FA0001F01509120010E94CBC120E030E040E78A
:103FB00052E40E94FDBE20E030E048EC52E40E9452
:103FC000FDBE209179052F93FF920F931F93DF93EE
:103FD000CF935B016C0182E0E82E01E020E04BE52D
:103FE00055E067E675E08DEA95E00E94345EE7E60D
:103FF000F5E0ADEAB5E00F900F900F900F900F90A5
:104000000F9041915191619171914D935D936D9399
:104010007D9385E0E737F807A1F70FB6F894809114
:10402000F1109091F210A091F310B091F4100FBE26
:104030008093B6039093B703A093B803B093B903EA
:10404000DF91CF911F910F91FF90EF90DF90CF9074
:10405000BF90AF900895F8940E941581779A1092BE
:104060009205769A10929305479A10929405439A76
:104070008C9A8D9AE1E8F9E06491EF01662341F0B2
:104080008CEF90E10E944F0E2196FE016491F6CFD5
:10409000ECE2F4E06491EF01662341F08CEF90E1F3
:1040A0000E944F0E2196FE016491F6CF6AE08CEFDC
:1040B00090E10E944F0E83E294E00E94F497FFCFBC
:1040C0000F931F930FB6F8948091F1109091F21016
:1040D000A091F310B091F4100FBE0091B6031091AF
:1040E000B7032091B8033091B9034091B2035091C6
:1040F000B3036091B4037091B503801B910BA20BC5
:10410000B30B481759076A077B0728F4452B462B42
:10411000472B09F0A0DF4091190150911A016091DD
:104120001B0170911C01411551056105710531F1AB
:104130000FB6F8948091F1109091F210A091F310C5
:10414000B091F4100FBE801B910BA20BB30B48175C
:1041500059076A077B0790F49091560A8091550A97
:1041600098130CC0779A10929205769A1092930544
:10417000479A10929405439A8C9A8D9A1F910F91A9
:104180000C945666CF93DF930E9415818091A8030B
:1041900081113AC081E08093A80380914F059091EE
:1041A0005005A0915105B091520580934B05909315
:1041B0004C05A0934D05B0934E05E1E8F9E06491FC
:1041C000EF01662341F08CEF90E10E944F0E2196A3
:1041D000FE016491F6CFEDEAF3E06491EF0166230E
:1041E00041F08CEF90E10E944F0E2196FE01649108
:1041F000F6CF6AE08CEF90E10E944F0E83EA93E0E5
:10420000DF91CF910C94E597DF91CF910895809144
:10421000A8030895EF92FF921F93CF93DF93EC01D1
:10422000809179058093A90384E534DC182F8111EE
:1042300008C010E0812FDF91CF911F91FF90EF9088
:10424000089514DC0E946ABF6093A903633088F369
:10425000EBE7F9E064917F01662351F08CEF90E188
:104260000E944F0E8FEFE81AF80AF7016491F4CF1D
:10427000C936D10519F1ACF46DE372E0C836D10549
:10428000C1F04091A90350E070E060E020E08CEFC5
:1042900090E10E9418BB6AE08CEF90E10E944F0E03
:1042A000C9CFCD36D10569F062E872E0CA3DD105CB
:1042B00041F78CEF90E10E94400EE3CF64E572E09D
:1042C000F8CF6BE672E0F5CF83EC95E00C94E45206
:1042D0000F931F93CF93DF9385E093E09093820732
:1042E0008093810784E897E0E5D8CCE5D7E005E046
:1042F00013E06E97198308838E81882321F0CE0105
:1043000003960E949E4986E0C033D80791F7C5E026
:10431000D3E0D0931306C093120685E196E0CAD885
:10432000D093F305C093F20585EF95E0DF91CF912F
:104330001F910F91BFC8CF93DF938CEF90E10E9444
:1043400008BEEEE4F4E06491EF01662341F08CEFE7
:1043500090E10E944F0E2196FE016491F6CF4091AC
:104360004F055091500560915105709152054F5F76
:104370005F4F6F4F7F4F8CEF90E10E947ABB6AE0F6
:104380008CEF90E10E944F0EDF91CF919ECB2F9248
:104390003F924F925F926F927F928F929F92AF92D5
:1043A000BF92CF92DF92EF92FF920F931F93CF9322
:1043B000DF93CDB7DEB76E970FB6F894DEBF0FBEB2
:1043C000CDBF10E654E0C52ED12C6AE3A62E67E0DF
:1043D000B62E70EB872E77E0972E01E08CEF90E100
:1043E0000E9428BC18161906CCF48091C003909145
:1043F000C10304979CF48CEF90E10E9461BC809310
:10440000BF032091BD033091BE038A3021F52115F1
:10441000310509F04AC01092BC0304C08091C50563
:1044200081110AC26E960FB6F894DEBF0FBECDBFE3
:10443000DF91CF911F910F91FF90EF90DF90CF9080
:10444000BF90AF909F908F907F906F905F904F90B4
:104450003F902F9008958D30D1F28A3321F49091BE
:10446000BC039923A1F22F3531058CF68B3311F45F
:104470000093BC039091BC039111B0CF6091C20333
:104480007091C303A9014F5F5F4F5093BE034093E8
:10449000BD03169FA001179F500D112446535C4F7A
:1044A000240F351FF901808399CF8091C203909129
:1044B000C303189F3001199F700C1124A3014653A8
:1044C0005C4F7A01240F351FF90110822091BC0343
:1044D000211191C18A539C4FFC0110826EE470E05F
:1044E000CA010E942FC6009709F433C19093BB0301
:1044F0008093BA038E199F09860D971D4AE050E0FC
:1045000070E060E085539C4F0E9482C4AB01BC0107
:104510004093530550935405609355057093560589
:1045200080914F0590915005A0915105B091520591
:104530000196A11DB11D6090C2037090C30348177E
:1045400059076A077B0769F0169DC001179D900DFA
:10455000112469E578E086539C4F0E94F4C5892BAD
:1045600009F1169D7001179DF00C1124A701465307
:104570005C4F3A016AE270E0CA010E942FC60097C0
:1045800009F02FC0E1E8F9E064918F01662309F496
:1045900066C08CEF90E10E944F0E0F5F1F4FF80135
:1045A0006491F4CFE1E8F9E064918F01662349F06A
:1045B0008CEF90E10E944F0E0F5F1F4FF801649146
:1045C000F5CFE6E2F8E064918F01662309F456C066
:1045D0008CEF90E10E944F0E0F5F1F4FF801649126
:1045E000F4CF20E0512CA301FA01E20FF11D30813C
:1045F0003A3219F02F5F5326F7CF9093BB03809385
:10460000BA03861997098E0D9F1D70E060E08553EF
:104610009C4F0E942DC30E9465BF5616170609F4D1
:1046200044C0E1E8F9E064918F01662349F08CEF22
:1046300090E10E944F0E0F5F1F4FF8016491F5CF7C
:10464000E7E0F8E064918F016623C1F08CEF90E120
:104650000E944F0E0F5F1F4FF8016491F5CFEDEDF3
:10466000F7E064918F01662349F08CEF90E10E949E
:104670004F0E0F5F1F4FF8016491F5CF40914F052A
:104680005091500560915105709152058CEF90E169
:104690000E947ABB6AE08CEF90E10E944F0E4BDEE5
:1046A0001092BE031092BD03BDCE80915305909130
:1046B0005405A0915505B091560580934F059093F0
:1046C0005005A0935105B09352058091C20390917B
:1046D000C303189F7001199FF00C1124A7014653C2
:1046E0005C4F3A0167E470E0CA010E942FC6009750
:1046F00009F46CC09093BB038093BA0386199709A1
:104700008E0D9F1D70E060E085539C4F0E942DC36D
:104710000E9465BF6430710508F058C08091A803FD
:1047200081116EC08091C305811150C0F401649164
:1047300040EBE42E47E0F42E662309F442C08CEFF0
:1047400090E10E944F0EFFEFEF1AFF0AF70164910C
:10475000F3CF6AE270E0C7010E942FC6892B09F4EB
:10476000B4CFE1E8F9E064918F01662349F08CEF62
:1047700090E10E944F0E0F5F1F4FF8016491F5CF3B
:10478000E3EBF7E064918F01662349F08CEF90E151
:104790000E944F0E0F5F1F4FF8016491F5CF4091BB
:1047A0004F055091500560915105709152058CEF65
:1047B00090E10E947ABB6AE08CEF90E10E944F0E7C
:1047C0006FCF6AE08CEF90E10E944F0E8091C203A0
:1047D0009091C3030196B6010E94B4C29093C303A3
:1047E0008093C2038091C0039091C103019690937E
:1047F000C1038093C0031092BE031092BD03EECD9F
:10480000F50164913AE3E32E37E0F32E662351F08D
:104810008CEF90E10E944F0EFFEFEF1AFF0AF701B5
:104820006491F4CF6AE08CEF90E10E944F0E80E338
:1048300097E00E94E597CACF8091BD039091BE0397
:10484000892B09F0EFCD8091C0039091C103892B92
:1048500011F41092A60300E611E08CE3882E912C4F
:10486000A12CB12C90E8492E9EEE592E96E3692E8C
:10487000712C29E0222E27E0322E409139085091E8
:104880003A0860913B0870913C0880913108909102
:104890003208A0913308B0913408481759076A07C5
:1048A0007B0708F0BFCD8091C0039091C1030497AE
:1048B0000CF0B8CD8091A6038111B4CD80918C0706
:1048C00090918D07A0918E07B0918F078093390842
:1048D00090933A08A0933B08B0933C0884E897E093
:1048E0000E94F447482F8093BF038A3041F08D30F7
:1048F00031F0833251F52091BC03211128C0409141
:10490000390850913A0860913B0870913C088091B9
:10491000310890913208A0913308B09134084817BB
:1049200059076A077B0708F4AEC0EDE1F7E0649130
:104930006F016623A1F18CEF90E10E944F0EFFEF13
:10494000CF1ADF0AF6016491F4CF8A33A1F22091E5
:10495000BD033091BE032F3531058CF68F3F98078C
:1049600071F24B3311F41093BC034091BC0341111D
:1049700084CF4091C2035091C303B9016F5F7F4F51
:104980007093BE036093BD03049FF001059FF00D7B
:104990001124E653FC4FE20FF31F80836ECF6AE0D1
:1049A0008CEF90E10E944F0E0FB6F894C090F1107A
:1049B000D090F210E090F310F090F4100FBEC0927F
:1049C000AA03D092AB03E092AC03F092AD03409106
:1049D000AE035091AF036091B0037091B103C41A5C
:1049E000D50AE60AF70AC701B60120E63AEE40E02A
:1049F00050E00E94C7C2CA01B901A50194010E94FA
:104A0000C7C27F936F93C701B601A30192010E94B1
:104A1000C7C23F932F933F922F9241E050E04C0F3B
:104A20005D1F5F934F930E945EC6EBE7F9E06491D0
:104A30000FB6F894DEBF0FBECDBF6F01662351F0F5
:104A40008CEF90E10E944F0E5FEFC51AD50AF60178
:104A50006491F4CFBE016F5F7F4F8CEF90E10E94B5
:104A6000400E6AE08CEF90E10E944F0ECE0101965D
:104A70000E94D69783EC95E00E94B75D61E083ECDD
:104A800095E00E942F5B8091BF03833211F4109355
:104A9000A6032091BD033091BE032115310509F411
:104AA000BACC8091C2039091C303089FF001099F83
:104AB000F00D1124E653FC4FE20FF31F1082FC01AE
:104AC000EA53FC4F10832091C0033091C1032F5F44
:104AD0003F4F3093C1032093C003019664E070E020
:104AE0000E94B4C29093C3038093C2031092BC038C
:104AF0001092BE031092BD03C0CE2F923F924F92F0
:104B00005F926F927F928F929F92AF92BF92CF925D
:104B1000DF92EF92FF920F931F93CF93DF93CDB766
:104B2000DEB7CE59D1090FB6F894DEBF0FBECDBFA8
:104B300087E40E944A1DF82E882311F40C94892FD3
:104B40000E94361D0E9465BF6C31710509F419C1C0
:104B50000CF06FC06230710509F402C12CF477FFCC
:104B6000DEC00E94651DE2C06330710509F401C119
:104B700064307105B1F781EF96E00E94E59780E51A
:104B80000E944A1DC12CD12C7601882331F00E944D
:104B9000361D0E946ABF6B017C0183E50E944A1D9D
:104BA000882361F00E94361D20E030E04AE754E49B
:104BB0000E94CBC10E946ABF6B017C010E94647A93
:104BC0000FB6F8948091F1109091F210A091F3102B
:104BD000B091F4100FBEC80ED91EEA1EFB1E0FB610
:104BE000F8948091F1109091F210A091F310B0918F
:104BF000F4100FBE8093B6039093B703A093B8034D
:104C0000B093B9030FB6F8948091F1109091F2101F
:104C1000A091F310B091F4100FBE8C159D05AE0558
:104C2000BF0508F09ECF0E940C7D4ADA0E940599CC
:104C3000E9CF6A35710511F40C944F2F7CF56D3175
:104C4000710509F42EC46E31710509F08ACF0E94F6
:104C5000647A0E945F1680913B0190913C01A09183
:104C60003D01B0913E0180931D0190931E01A093E0
:104C70001F01B09320010E942217EAE5F6E064913B
:104C80008F01662311F40C94F42E8CEF90E10E94B6
:104C90004F0E0F5F1F4FF8016491F3CF6B35710515
:104CA00011F40C94532F6C35710509F05ACF85E43B
:104CB0000E944A1D811102C00E94647AFDEF4F2EAE
:104CC000F2E05F2EA1EA6A2EA5E07A2EBDEA8B2ED5
:104CD000B5E09B2EB12CD2018D912D010E944A1D71
:104CE000882391F0B3E0BB120C94582F0E94361D1C
:104CF0006093B9057093BA058093BB059093BC058A
:104D000089EB95E00E945C72B4E06B0E711CE4E0EC
:104D10008E0E911CB394F4E0BF12DDCF22CF8091B0
:104D2000A80381111DC00E949B1D3BD8C256DF4FB6
:104D30000FB6F894DEBF0FBECDBFDF91CF911F91AC
:104D40000F91FF90EF90DF90CF90BF90AF909F902A
:104D50008F907F906F905F904F903F902F9008952D
:104D60008091A803811105C00E94111E81E0E9D83D
:104D7000DDCF8091A8038111FECE0E94111E80E03C
:104D8000F6CF83E591E00E9410B480911D019091CF
:104D90001E01A0911F01B0912001809357059093AF
:104DA0005805A0935905B0935A058091310190910F
:104DB00032019093BE058093BD0584E690E0909308
:104DC0003201809331010FB6F8948091F1109091E7
:104DD000F210A091F310B091F4100FBE8093B603BF
:104DE0009093B703A093B803B093B90381E00E94F6
:104DF0009273EDEAF5E0A7E6B5E08DEB95E0419121
:104E00005191619171914D935D936D937D938E1747
:104E10009F07A9F710921D0110921E0110921F0109
:104E20001092200188E50E944A1D811112C089E577
:104E30000E944A1D81110DC08AE50E944A1D811100
:104E400008C081E08093210190E080E00E94191861
:104E500007C01092210188E50E944A1D8111F4CFFC
:104E600080912101882309F4BCC281E090E00E9476
:104E7000191888E50E944A1D8823E1F00E943F1D11
:104E8000672B682B692BB1F00E94361D9B01AC018A
:104E90006091A1057091A2058091A3059091A40550
:104EA0000E941DBE6093AD057093AE058093AF0563
:104EB0009093B00589E50E944A1D8823E1F00E9485
:104EC0003F1D672B682B692BB1F00E94361D9B019B
:104ED000AC016091A5057091A6058091A705909100
:104EE000A8050E941DBE6093B1057093B205809322
:104EF000B3059093B40580912101882309F412C170
:104F000020919A0330919B0340919C0350919D0303
:104F100060910C0170910D0180910E0190910F0133
:104F20000E941CBE20E030E040E05FE30E94CBC165
:104F30002091000130910101409102015091030143
:104F40000E941CBE6B017C0120E030E0A9010E94A0
:104F5000F9C020E030E040E05FE387FD48C2C701D0
:104F6000B6010E941DBE0E9465BF0E9498BF60935B
:104F70006705709368058093690590936A05209191
:104F80009E0330919F034091A0035091A103609133
:104F900010017091110180911201909113010E94F2
:104FA0001CBE20E030E040E05FE30E94CBC12091D6
:104FB00004013091050140910601509107010E94C2
:104FC0001CBE6B017C0120E030E0A9010E94F9C009
:104FD00020E030E040E05FE387FD0EC2C701B6018C
:104FE0000E941DBE0E9465BF0E9498BF60936B0522
:104FF00070936C0580936D0590936E05ECEFF6E071
:10500000649126EF6202B0011124072E000C880B78
:10501000990B0E9498BF60936F0570937005809301
:1050200071059093720580E090E4ACE9B5E480935B
:105030001D0190931E01A0931F01B09320011092B7
:10504000B5051092B6051092B7051092B8052091DB
:10505000B1053091B2054091B3055091B40560910E
:10506000AD057091AE058091AF059091B005B9EB9B
:10507000CB2EB5E0DB2EE12CF12C87010E949C7138
:1050800080901D0190901E01A0901F01B090200102
:10509000E0906F05F0907005009171051091720518
:1050A00020916B0530916C0540916D0550916E0516
:1050B00060916705709168058091690590916A0516
:1050C000E9E7F5E0FF93EF93E3E7CE2EE5E0DE2E90
:1050D0000E947A660E94647A8091670590916805C3
:1050E000A0916905B0916A058093AD059093AE05D6
:1050F000A093AF05B093B00580916B0590916C05BE
:10510000A0916D05B0916E058093B1059093B205A5
:10511000A093B305B093B40582E090E00E94191803
:105120000F900F908AE50E944A1D882309F4CAC097
:1051300080919205882309F464C1809193058823A6
:1051400009F45FC18090AD059090AE05A090AF05C9
:10515000B090B00520910001309101014091020111
:1051600050910301C501B4010E941DBE6B017C0179
:10517000209195053091960540919705509198059D
:105180000E94F9C087FD65C120912301309124015F
:105190004091250150912601C701B6010E94F6BE3B
:1051A00018160CF456C14090B1055090B2056090AD
:1051B000B3057090B4052091040130910501409130
:1051C000060150910701C301B2010E941DBE6B018F
:1051D0007C012091990530919A0540919B05509151
:1051E0009C050E94F9C087FD34C1209127013091B0
:1051F00028014091290150912A01C701B6010E945E
:10520000F6BE18160CF425C11092B5051092B6051D
:105210001092B7051092B805F9EBCF2EF5E0DF2E0E
:10522000E12CF12C8701A3019201C501B4010E9478
:105230009C71ECEFF6E0649186EF6802B0011124F6
:10524000072E000C880B990B0E9498BF7B018C01E4
:10525000E0926F05F092700500937105109372054E
:105260008090A00F9090A10FA090A20FB090A30FDC
:1052700080921D0190921E01A0921F01B092200108
:1052800020916B0530916C0540916D0550916E0534
:1052900060916705709168058091690590916A0534
:1052A000E9E7F5E0FF93EF93A3E7CA2EA5E0DA2E36
:1052B0000E947A660E94647A82E090E00E94191847
:1052C0000F900F908AE50E944A1D8823E1F00E940A
:1052D0003F1D672B682B692BB1F00E94361D9B0187
:1052E000AC016091A9057091AA058091AB059091E0
:1052F000AC050E941DBE6093B5057093B605809302
:10530000B7059093B80580912101882309F4C3C0A3
:10531000209108013091090140910A0150910B013F
:105320006091B5057091B6058091B7059091B8056B
:105330000E941CBE6093B5057093B6058093B705B7
:105340009093B805E090B505F090B6050091B705CB
:105350001091B8052091B1053091B2054091B30587
:105360005091B4056091AD057091AE058091AF0587
:105370009091B005E9EBCE2EE5E0DE2E0E949C7107
:1053800080E00E9492738091570590915805A091FA
:105390005905B0915A0580931D0190931E01A09369
:1053A0001F01B09320018091BD059091BE0590939F
:1053B0003201809331010FB6F8948091F1109091F1
:1053C000F210A091F310B091F4100FBE8093B603C9
:1053D0009093B703A093B803B093B9030E948B7363
:1053E000C0CB89E50E944A1D81113FCD42CDC70146
:1053F000B6010E941CBEB7CDC701B6010E941CBEFB
:10540000F1CD8FED96E00E94E597EBE7F9E064912E
:105410008F01662349F08CEF90E10E944F0E0F5FE1
:105420001F4FF8016491F5CFEDECF6E064918F0128
:10543000662349F08CEF90E10E944F0E0F5F1F4FE3
:10544000F8016491F5CF6AE08CEF90E10E944F0E75
:1054500039CF8AEB96E00E94E597EBE7F9E064919B
:105460008F01662349F08CEF90E10E944F0E0F5F91
:105470001F4FF8016491F5CFE7EAF6E064918F01E0
:10548000662309F38CEF90E10E944F0E0F5F1F4FD0
:10549000F8016491F5CF8AE50E944A1D811138CF49
:1054A00051CF0E94647A83E591E00E9410B4CE014E
:1054B00085599F4F0E942571AF966CAD7DAD8EAD25
:1054C0009FADAF976093AD057093AE058093AF0528
:1054D0009093B005E3962CAD3DAD4EAD5FADE39737
:1054E0002093B1053093B2054093B3055093B405B2
:1054F000E796ECACFDAC0EAD1FADE797E092B505BD
:10550000F092B6050093B7051093B805A9EBCA2E23
:10551000A5E0DA2E0E949C710E945F1680913B01EB
:1055200090913C01A0913D01B0913E0180931D01FD
:1055300090931E01A0931F01B09320012091B1050B
:105540003091B2054091B3055091B4056091AD051D
:105550007091AE058091AF059091B005E12CF12CD2
:1055600000E810E40E94C216C090B505D090B605C0
:10557000E090B705F090B80520919E0330919F030D
:105580004091A0035091A10360911001709111010D
:1055900080911201909113010E941CBE20E030E026
:1055A00040E251E40E941CBE2091040130910501AB
:1055B00040910601509107010E941CBE4B015C0105
:1055C00020910001309101014091020150910301AD
:1055D00060E070E080E291E40E941CBE87017601E9
:1055E000A50194010E94C2160E9422174090B505A1
:1055F0005090B6056090B7057090B805EFE9F6E0F9
:1056000064918F01662349F08CEF90E10E944F0E68
:105610000F5F1F4FF8016491F5CF6AE070E08CEFE7
:1056200090E10E94521AEAE9F6E064918F01662344
:1056300049F08CEF90E10E944F0E0F5F1F4FF80171
:105640006491F5CF20919E0330919F034091A00378
:105650005091A1036091100170911101809112018C
:10566000909113010E941CBE20E030E040E251E422
:105670000E941CBEAB01BC0122E030E08CEF90E147
:105680000E94581AE5E9F6E064918F01662349F01B
:105690008CEF90E10E944F0E0F5F1F4FF801649155
:1056A000F5CF4091B5055091B6056091B705709161
:1056B000B80522E030E08CEF90E10E94581AE3E94F
:1056C000F6E064918F01662349F08CEF90E10E942F
:1056D0004F0E0F5F1F4FF8016491F5CF20E030E0CF
:1056E00040EA50E46091B5057091B6058091B70528
:1056F0009091B8050E941DBE7B018C012091B105DF
:105700003091B2054091B3055091B4056091AD055B
:105710007091AE058091AF059091B0050E94C216C0
:10572000C090B505D090B605E090B705F090B805EB
:10573000209104013091050140910601509107012B
:1057400060E070E080E291E40E941CBE4B015C01CD
:10575000209100013091010140910201509103011B
:1057600060E070E080E291E40E941CBE8701760157
:10577000A50194010E94C2160E9422178090B505CF
:105780009090B605A090B705B090B805EBE8F6E0AC
:1057900064918F01662349F08CEF90E10E944F0ED7
:1057A0000F5F1F4FF8016491F5CF6AE070E08CEF56
:1057B00090E10E94521AE6E8F6E064918F016623B8
:1057C00049F08CEF90E10E944F0E0F5F1F4FF801E0
:1057D0006491F5CF6AE070E08CEF90E10E94521A7C
:1057E000E1E8F6E064918F01662349F08CEF90E1E7
:1057F0000E944F0E0F5F1F4FF8016491F5CF40914B
:10580000B5055091B6056091B7057091B80522E0D5
:1058100030E08CEF90E10E94581AEFE7F6E06491D7
:105820008F01662349F08CEF90E10E944F0E0F5FCD
:105830001F4FF8016491F5CF20E030E040EA50E4DA
:105840006091B5057091B6058091B7059091B80546
:105850000E941DBE7B018C012091B1053091B205E3
:105860004091B3055091B4056091AD057091AE05BE
:105870008091AF059091B0050E94C216C090B50509
:10588000D090B605E090B705F090B80520910401DE
:1058900030910501409106015091070160E070E0F0
:1058A00080E291E40E941CBEC556DF4F6883798375
:1058B0008A839B83CB59D04020919A0330919B03DC
:1058C00040919C0350919D0360910C0170910D01DA
:1058D00080910E0190910F010E941CBE20E030E0EB
:1058E00040E251E40E941CBE209100013091010170
:1058F00040910201509103010E941CBE8701760174
:10590000C556DF4F288139814A815B81CB59D04010
:105910000E94C2160E9422178091B5059091B6058B
:10592000A091B705B091B805C556DF4F888399831C
:10593000AA83BB83CB59D040E7E7F6E064918F019F
:10594000662349F08CEF90E10E944F0E0F5F1F4FCE
:10595000F8016491F5CF20919A0330919B03409117
:105960009C0350919D0360910C0170910D018091F9
:105970000E0190910F010E941CBE20E030E040E239
:1059800051E40E941CBEAB01BC0122E030E08CEF70
:1059900090E10E94581AE2E7F6E064918F016623D5
:1059A00049F08CEF90E10E944F0E0F5F1F4FF801FE
:1059B0006491F5CF6AE070E08CEF90E10E94521A9A
:1059C000EDE6F6E064918F01662349F08CEF90E1FB
:1059D0000E944F0E0F5F1F4FF8016491F5CF409169
:1059E000B5055091B6056091B7057091B80522E0F4
:1059F00030E08CEF90E10E94581AEBE6F6E06491FB
:105A00008F01662349F08CEF90E10E944F0E0F5FEB
:105A10001F4FF8016491F5CF0E94931683E591E042
:105A20000E9410B47501640100E010E020E231E44E
:105A3000B901A801CE01815A9F4F0E94C9B020919F
:105A40009E0330919F034091A0035091A103609168
:105A500010017091110180911201909113010E9427
:105A60001CBE20E030E040E251E40E941CBE8B01ED
:105A70009C017301620140E050E060E271E4CE01FC
:105A80008D5A9F4F0E94C9B020919A0330919B0379
:105A900040919C0350919D0360910C0170910D0108
:105AA00080910E0190910F010E941CBE20E030E019
:105AB00040E251E40E941CBEAB01BC01C556DF4F61
:105AC000C880D980EA80FB80CB59D04000E010E04C
:105AD00020E231E4CE01895B9F4F0E94C9B0A096BD
